:020000040800F2
:10000000F0060020A1940008090900080B09000867
:100010000F09000813090008170900080000000074
:100020000000000000000000000000001B090008A4
:100030001D090008000000001F0900082109000830
:10004000BB940008BB940008BB940008BB94000854
:10005000BB940008BB9400083F9200086992000816
:10006000BB940008BB940008BB940008BB94000834
:10007000BB940008BB940008BB940008BB94000824
:10008000BB940008BB940008BB940008BB94000814
:10009000BB940008BB940008BB940008BB94000804
:1000A000BB940008BB940008BB940008BB940008F4
:1000B000BB940008BB940008BB940008BB940008E4
:1000C000BB940008BB940008BB940008BB940008D4
:1000D000BB940008BB940008BB9400081794000868
:1000E000BB940008BB940008BB94000800F002F821
:1000F00000F03FF80AA090E8000C82448344AAF183
:100100000107DA4501D100F034F8AFF2090EBAE880
:100110000F0013F0010F18BFFB1A43F0010318473B
:1001200088C10000A8C10000103A24BF78C878C177
:10013000FAD8520724BF30C830C144BF04680C60ED
:10014000704700000023002400250026103A28BF35
:1001500078C1FBD8520728BF30C148BF0B60704739
:1001600078290AF07D80002070471FB51FBD10B5AB
:1001700010BD0AF045F91146FFF7F7FF00F086FBC6
:100180000AF063F903B4FFF7F2FF03BC09F0E6F8E5
:100190009CB000201A9000BF00BFFE49CDE91801B5
:1001A000FD49CDE9160100BF00BFFA49CDE91001B4
:1001B000FA49CDE90E0100BF00BF00BFF849CDE903
:1001C0000C01F849CDE90A010022F74BDDE90E01E7
:1001D0000BF032F90022F24BCDE904010BF02CF9BF
:1001E000CDE908010020EE49CDE906010022EE4BE1
:1001F000DDE90E010AF008FDCDE900010AF048FF33
:1002000080B20022E94B0590DDE910010AF0FCFC08
:10021000CDE900010AF03CFF80B20022E24B0490DD
:10022000DDE90E010BF008F9CDE900010AF030FF1D
:1002300080B20022DD4B0390DDE910010BF0FCF8E9
:10024000CDE900010AF024FF80B2029003A90EC993
:1002500008F096FD0022D44BDDE90E010AF0D4FC33
:10026000CDE900010AF014FF80B20022CF4B0590C7
:10027000DDE910010AF0C8FCCDE900010AF008FF31
:1002800080B20022C84B0490DDE90E010BF0D4F8D7
:10029000CDE900010AF0FCFE80B20022C34B0390BE
:1002A000DDE910010BF0C8F8CDE900010AF0F0FE1D
:1002B00080B202904FF47840009002A80FC808F076
:1002C00060FCBBA0102132231A46CDE900104FF488
:1002D000E171002008F02CFF1020012300904FF462
:1002E000E17132201A9A08F06AFEB348B3490AF065
:1002F00033FC0022B24BCDE904010AF05DFFCDE9E9
:100300001201AD48AD490AF0D1FB0022AC4BCDE95A
:1003100004010AF051FFCDE91401B6E2DDE914232E
:10032000DDE918010AF070FCCDE91801DDE91223BE
:10033000DDE916010BF080F8CDE916010EE1DDE9EB
:100340000C23DDE918010AF0FBFE0DD200209749CD
:10035000DDE918230BF070F8CDE91801DDE914018F
:1003600081F00041CDE91401DDE90A23DDE918013E
:100370000BF020F80DD200209249DDE918230BF094
:100380005BF8CDE91801DDE9140181F00041CDE908
:100390001401DDE90823DDE916010BF00BF869D241
:1003A0000022824BDDE910010BF046F8864A874BAC
:1003B000CDE902010BF040F8CDE90401DDE9182395
:1003C0000AF0BEFE56D20022784BDDE910010AF099
:1003D0001BFC7D4A7D4BCDE902010AF015FCCDE9FD
:1003E0000401DDE918230AF0E5FF43D200226C4B3B
:1003F000DDE908010AF008FC00224FF08043CDE956
:1004000000010AF0D9FE0022684BCDE902010BF091
:1004100013F8CDE90401DDE916230BF00DF8CDE961
:100420001601DDE9120181F00041CDE912011A98AF
:10043000401C1A901A9800280CDB1A98092809DC2D
:100440001020012300904FF4E17132201A9A08F035
:10045000B6FD6EE01A980A286BDB1A98632868DCF0
:100460001020022300904FF4E17132201A9A08F014
:10047000A6FD5EE0DDE90823DDE916010AF09AFF3A
:1004800057D20022494BDDE910010AF0D5FF4E4A50
:100490004E4BCDE902010AF0CFFFCDE90401DDE9C1
:1004A00018230AF087FF12D30022404BDDE9100128
:1004B0000AF0AAFB444A464BCDE902010AF0A4FB2C
:1004C000CDE90401DDE918230AF03AFE31D24FF4F8
:1004D000FC6001F0BDFB4FF478403E49088034A039
:1004E000102132231A46CDE900104FF4E1710020AB
:1004F00008F01EFE1A9800280CDB1A98092809DC5F
:100500001020012300904FF4E17132201A9A08F074
:1005100056FD0EE01A980A280BDB1A98632808DCAF
:100520001020022300904FF4E17132201A9A08F053
:1005300046FDDDE90623DDE916010AF001FE0DD2D4
:1005400000201A49DDE916230AF076FFCDE91601ED
:10055000DDE9120181F00041CDE91201DDE90C2352
:10056000DDE918010AF0ECFDFFF4E9AEDDE90A234C
:10057000DDE918010AF01EFFF6D3DDE90823DDE905
:1005800016010AF017FFEFD3DDE90623DDE91601B6
:1005900022E000000000644000A07440008076402B
:1005A0000000344000C0724000002440000044407D
:1005B00073636F72653A00001F85EB51B81EE93F07
:1005C0000000144000C08240F227124E695E2C40A9
:1005D000695E2CC0140000200AF0B2FDC4D3DDE92E
:1005E00016010AF055FD80B20590DDE918010AF008
:1005F0004FFD80B214220490059908F0DFFB0A2019
:1006000008F06CFE0022B74BDDE916010AF0FCFA97
:10061000CDE900010AF03CFD80B20022B14B05900B
:10062000DDE918010AF0F0FACDE900010AF030FD29
:1006300080B20022AB4B0490DDE916010AF0FCFE0B
:10064000CDE900010AF024FD80B20022A54B039001
:10065000DDE918010AF0F0FECDE900010AF018FD0D
:1006600080B202904FF6FF70009002A80FC808F009
:1006700088FA9D48006801287ED100209A490860C8
:1006800000229A4BDDE910010AF094FE77D2002295
:10069000974BDDE90E010AF0B7FACDE900010AF047
:1006A000F7FC80B20022914B0590DDE910010AF0C1
:1006B000ABFACDE900010AF0EBFC80B200228C4BD2
:1006C0000490DDE90E010AF0B7FECDE900010AF061
:1006D000DFFC80B20022854B0390DDE910010AF0B7
:1006E000ABFECDE900010AF0D3FC80B202904FF6D8
:1006F000FF70009002A80FC808F043FA0022794B5F
:10070000DDE910010AF098FECDE910010022784BD6
:10071000DDE90E010AF078FACDE900010AF0B8FC33
:1007200080B20022714B0590DDE910010AF06CFAED
:10073000CDE900010AF0ACFC80B200226C4B0490C1
:10074000DDE90E010AF078FECDE900010AF0A0FC17
:1007500080B20022654B0390DDE910010AF06CFEC7
:10076000CDE900010AF094FC80B202904FF4784089
:10077000009002A80FC800E001E008F002FA5D480E
:10078000006801287ED100205A49086000225A4B97
:10079000DDE910010AF0D4FC77D20022544BDDE9E8
:1007A0000E010AF031FACDE900010AF071FC80B2C5
:1007B00000224E4B0590DDE910010AF025FACDE943
:1007C00000010AF065FC80B20022494B0490DDE98B
:1007D0000E010AF031FECDE900010AF059FC80B2A9
:1007E0000022424B0390DDE910010AF025FECDE91D
:1007F00000010AF04DFC80B202904FF6FF700090AD
:1008000002A80FC808F0BDF90022364BDDE910013F
:100810000AF0FAF9CDE910010022354BDDE90E01AD
:100820000AF0F2F9CDE900010AF032FC80B20022B0
:100830002E4B0590DDE910010AF0E6F9CDE9000143
:100840000AF026FC80B20022294B0490DDE90E015B
:100850000AF0F2FDCDE900010AF01AFC80B2002294
:10086000224B0390DDE910010AF0E6FDCDE900011D
:100870000AF00EFC80B202904FF47840009002A87B
:100880000FC800E001E008F07CF947E500BF1B4815
:10089000806940F00100194988611948406820F0DA
:1008A0007F4040F080601649486000BF00F0A8F823
:1008B000482008F0F9FC08F04BFD4FF4165008F002
:1008C0005BFD00F01DF908F067FC01F0FEF94FF642
:1008D000FF7001F0BDF94FF478400A490880FFF736
:1008E00057FC000000003440180000200000444085
:1008F000000024401C0000200080714000100240D5
:100900000000014014000020704700BFFEE700BF58
:10091000FEE700BFFEE700BFFEE770477047704785
:10092000704700000CB50020019000906B480068F3
:1009300040F480306949086000BF6848006800F4EE
:10094000003000900198401C0190009818B901985F
:10095000B0F5A06FF1D16148006810F4003F02D0FB
:100960000120009001E0002000900098012842D171
:100970005B48006840F0100059490860084600686C
:1009800020F0030008600846006840F0020008609C
:1009900052484068514948600846406848600846E7
:1009A000406840F4806048600846406820F47C104D
:1009B00048600846406840F4E8104860084600680F
:1009C00040F08070086000BF4448006810F0007F6D
:1009D000FAD04248406820F0030040494860084689
:1009E000406840F00200486000BF3C48406800F0AA
:1009F0000C000828F9D10CBD10B5FFF793FF10BD0E
:100A000010B53648006840F00100344908600846D7
:100A10004068344908403149486008460068324916
:100A200008402E4908600846006820F480200860CD
:100A30000846406820F4FE0048604FF41F008860BC
:100A4000FFF7DAFF4FF000602849086010BD10B5CD
:100A5000002100200022214B5B6803F00C0121B132
:100A6000042906D0082928D107E0214B214C236016
:100A700027E01F4B1F4C236023E0184B5B6803F4F7
:100A80007010164B5B6803F48032022303EB904036
:100A900022B9194B4343174C23600DE00F4B5B68A1
:100AA00013F4003F04D0144B4343124C236003E083
:100AB0000F4B43430F4C236003E00D4B0D4C236061
:100AC00000BF00BF054B5B68C3F303130B4CE15C35
:100AD000084B1B68CB40074C236010BD0010024040
:100AE000002002400000FFF8FFFFF6FE08ED00E0E6
:100AF00000127A000000002000093D0004000020E0
:100B000008B50121042009F0FDF84FF48070ADF81C
:100B1000000010208DF8030003208DF802006946C4
:100B20000E4808F039FE4FF480710C4808F0DFFEE3
:100B30000121202009F0E6F80420ADF80000102083
:100B40008DF8030003208DF802006946044808F080
:100B500023FE0421024808F0CAFE08BD0008014037
:100B6000001401404FF48071FE4A51614900516107
:100B7000FD49086080215161116189001161704750
:100B800010B54FF08830F8490C390860091D08602D
:100B90000020F54908608815F24908614000486165
:100BA00040204861F1488088A0F50941893902D187
:100BB000022008F0AEFBEC48001F006884B2402021
:100BC000E8490861C00008614FF03330E6490C394C
:100BD0000860091D08604FF6FF70E3490860204671
:100BE00010BD10B504460B462046FFF7BBFF4FF47F
:100BF0008070DC49086140004861DB480360802068
:100C0000486108618000086110BD10B504462046A7
:100C1000FFF7A8FFFFF7B4FF10BD00B5D34908895F
:100C2000FFF7A0FF00BD4FF48071CE4A116149006B
:100C30005161CD49086080215161116189001161C4
:100C4000704730B5014601F01F04C1F34513CA0ACD
:100C5000E50205EB43151544A8B230BD30B5044696
:100C60000D46C2488088A0F51341413905D0BF48E0
:100C70008088A0F5A641103940D1BC494889FFF7CA
:100C800071FF4FF48070B74908614000486120123D
:100C9000B54908608020B349486108618000086157
:100CA0004010086140004861E0B2AF490860802010
:100CB000AC494861086180000861AC498889FFF748
:100CC00051FF4FF48070A749086140004861281225
:100CD000A54908608020A349486108618000086137
:100CE0004010086140004861E8B29F4908608020D8
:100CF0009C494861086180000861B9E09B48808890
:100D0000A0F5D041043949D198488079012804D10F
:100D100096480088401E001B84B294494889FFF71A
:100D200021FF4FF480708F49086140004861201214
:100D30008D49086080208B49486108618000086106
:100D40004010086140004861E0B287490860802097
:100D50008449486108618000086184498889FFF7F7
:100D600001FF4FF480707F490861400048612812FC
:100D70007D49086080207B494861086180000861E6
:100D80004010086140004861E8B27749086080205F
:100D90007449486108618000086169E0734880888F
:100DA000A0F5AA41103950D170494889FFF7DAFE01
:100DB0004FF480706B4908614000486120126A4915
:100DC00008608020674948610861800008616749C0
:100DD0004989491C88B2FFF7C5FE4FF4807061490C
:100DE000086140004861E0B25F49086080205D49C9
:100DF00048610861800008615C498889FFF7B2FE9C
:100E00004FF48070574908614000486128125649E4
:100E10000860802053494861086180000861534997
:100E20008989491C88B2FFF79DFE4FF480704D49B7
:100E3000086140004861E8B24B4908608020494998
:100E4000486108618000086112E048488079012803
:100E500004D146480088401E001B84B2434948899B
:100E60002146FFF7BEFE414988892946FFF7B9FEB2
:100E700030BD2DE9F04105460E463C480088A842A9
:100E800003DD3A484088B04202DC0020BDE8F08132
:100E900031462846FFF7E2FE34488088A0F513412A
:100EA00041390BD031488088A0F5D041043905D0B4
:100EB0002E488088A0F5A641103903D12E20FFF7D7
:100EC00051FE0DE029488088A0F5AA41103904D1CF
:100ED0004FF43850FFF746FE02E02220FFF742FEB3
:100EE0004FF0883020490C390860091D08604FF622
:100EF000FF701D49086088151A4908614000486163
:100F000040204861012008F004FA4020154908619A
:100F10004861012008F0FDF940201249086112489B
:100F2000001F006884B211488088A0F51341413940
:100F30000BD00E488088A0F5A641103905D00B488B
:100F40008088A0F5AA41103915D140200549486193
:100F500008610548001F00681FFA80F8E7B24FF6E5
:100F6000FF7005E0001001400C0C01404000002023
:100F700000EA07270CE0FE488088A0F5D04104393C
:100F800006D14020FB4948610861FB48006884B2F3
:100F90004FF40070F74908614FF03330F6490839D3
:100FA0000860091D08604FF6FF70F349091D0860CD
:100FB000EF488088A0F51341253917D0EC48808888
:100FC000A0F58A41353911D0E9488088A0F58A41D9
:100FD00031390BD0E6488088A0F50941893905D020
:100FE000E3488088A0F53541053901D120464DE719
:100FF000DF488088A0F5134141390BD0DC48808858
:10100000A0F5A641103905D0D9488088A0F5AA419D
:10101000103907D1E012C002B91240EA411040EA8B
:10102000E82033E72046FFF70CFE2FE700B5D04855
:101030008088A0F5134141390BD0CD488088A0F5B8
:10104000D041043905D0CA488088A0F5A64110399E
:1010500003D12920FFF786FD0FE0C5488088A0F561
:10106000AA41103904D14FF42450FFF77BFD04E06E
:1010700040F273110720FFF7B4FD00BD00B5BC4876
:101080008088A0F5134141390BD0B9488088A0F57C
:10109000D041043905D0B6488088A0F5A641103962
:1010A00003D12820FFF75EFD0EE0B1488088A0F54F
:1010B000AA41103904D14FF42050FFF753FD03E04B
:1010C00000210720FFF78DFD00BDF0B50546002487
:1010D0000027A748807901281ED1A5488088A0F55F
:1010E000D041043918D0082D15D2DFE805F00406E8
:1010F000080A0C0E101206250DE007250BE004254A
:1011000009E0052507E0012505E0002503E00325AA
:1011100001E0022500BF00BF95488088A0F513417B
:10112000413911D092488088A0F5D04104390BD0C4
:101130008F488088A0F5A641103905D08C4880885A
:10114000A0F5AA4110397DD1082D1CD2DFE805F0A9
:101150000406090C0F12151800BF14E044F08004B7
:1011600011E044F040040EE044F0C0040BE044F011
:10117000200408E044F0600405E044F0A00402E02C
:1011800044F0E00400BF00BF79488088A0F5AA4180
:10119000103902D14FF4585700E036277448808840
:1011A000A0F5A641103907D071488088A0F5AA4162
:1011B000103901D044F008046D488088A0F5D04172
:1011C000043901D144F0020421463846FFF709FDF5
:1011D00014F0200F03D16648807901280DD16448AE
:1011E000008863494988884214DA61480688408843
:1011F0005F490880084646800CE05D4800885C49ED
:101200004988884206DD5A4806884088584908803F
:101210000846468056488088A0F5AA4110397DD1FD
:1012200053494889FFF79EFC4FF48070514908618B
:101230004000486100205049091D086080204D4948
:10124000486100E030E1086180000861484949894F
:10125000491C88B2FFF786FC4FF48070454908614D
:101260004000486100204449091D08608020414930
:1012700048610861800008613D494989891C88B23C
:10128000FFF770FC4FF480703A49086140004861F4
:1012900037480088401E00123749091D0860802029
:1012A0003449486108618000086131494989C91C95
:1012B00088B2FFF757FC4FF480702E490861400058
:1012C00048612B480078401EC0B22B49091D0860B8
:1012D0008020284948610861800008612449888984
:1012E000FFF740FC4FF480702249086140004861DC
:1012F00000202149091D086080201E4948610861BD
:10130000800008611A498989491C88B2FFF72AFCC4
:101310004FF4807017490861400000E043E04861E5
:1013200000201549091D08608020124948610861A4
:10133000800008610E498989891C88B2FFF712FC78
:101340004FF480700B4908614000486108484088AC
:10135000401E00120849091D0860802005494861A7
:1013600008618000086102498989C91C88B205E0CA
:101370004000002000100140080C0140FFF7F2FB84
:101380004FF48070FD49086140004861FC48807856
:10139000401EC0B2FB4908608020F84948610861DE
:1013A00080000861B2E0F6494889FFF7DBFB4FF4A3
:1013B0008070F2490861400048610020F1490860EE
:1013C0008020EE4948610861800008614010086192
:1013D000400048610020EB4908608020E7494861EF
:1013E0000861800008614010086140004861E448DD
:1013F0000088401E0012E34908608020DF494861F0
:101400000861800008614010086140004861DC48C4
:101410000078401EC0B2DB4908608020D74948618F
:10142000086180000861D6498889FFF79BFB4FF46B
:101430008070D2490861400048610020D1490860AD
:101440008020CE4948610861800008614010086131
:10145000400048610020CB4908608020C7494861AE
:101460000861800008614010086140004861C4487C
:101470004088401E0012C34908608020BF4948616F
:101480000861800008614010086140004861BC4864
:101490008078401EC0B2BB4908608020B7494861CF
:1014A00008618000086131E0082D1CD2DFE805F0FA
:1014B00004070A0D0F12151844F0300413E044F02D
:1014C000100410E044F020040DE000BF0BE044F0F5
:1014D000380408E044F0280405E044F0180402E071
:1014E00044F0080400BF00BFA5488088A0F509416A
:1014F000893904D1112746F24000044302E0032752
:1015000044F4805421463846FFF76BFBF0BD30B5FC
:1015100004460D4629462046FFF7A0FBFFF77DFB5A
:101520004FF48070954908614000486196480088F2
:1015300094490860802091494861086180000861F1
:1015400030BD70B504460D4616468D488088A0F51E
:101550001341413905D08A488088A0F5A641103949
:1015600040D187494889FFF7FDFA4FF480708349DD
:1015700008614000486120128249086080207F494C
:1015800048610861800008614010086140004861BE
:10159000E0B27C4908608020784948610861800099
:1015A000086177498889FFF7DDFA4FF48070734945
:1015B00008614000486128127249086080206F4924
:1015C000486108618000086140100861400048617E
:1015D000E8B26C4908608020684948610861800071
:1015E0000861B9E066488088A0F5AA41103950D159
:1015F00063494889FFF7B6FA4FF480705F49086184
:101600004000486120125F49086080205B494861C2
:101610000861800008615A494989491C88B2FFF76E
:10162000A1FA4FF480705549086140004861E0B26A
:101630005449086080205149486108618000086170
:101640004F498889FFF78EFA4FF480704B49086143
:101650004000486128124B49086080204749486192
:1016600008618000086146498989491C88B2FFF7F2
:1016700079FA4FF480704149086140004861E8B24E
:101680004049086080203D49486108618000086148
:1016900062E03B488088A0F5D041043949D1384800
:1016A0008079012804D136480088401E001B84B28E
:1016B00033494889FFF756FA4FF480702F49086183
:1016C0004000486120122F49086080202B49486162
:1016D0000861800008614010086140004861E0B284
:1016E0002849086080202549486108618000086118
:1016F00023498889FFF736FA4FF480701F49086143
:101700004000486128121F49086080201B49486139
:101710000861800008614010086140004861E8B23B
:1017200018490860802015494861086180000861F7
:1017300012E013488079012804D111480088401E26
:10174000001B84B20E4948892146FFF74AFA0C492A
:1017500088892946FFF745FA09490889FFF702FAFF
:101760004FF48070054908614000486105480660F3
:101770008020486108618000086170BD0010014050
:10178000400000200C0C01401400002010B504465D
:10179000002C60D1FE498871F02008804FF4A070C1
:1017A000488008468088A0F5134141390BD0F8489D
:1017B0008088A0F5D041043905D0F5488088A0F58F
:1017C000A64110391AD12C20F14908812A204881DC
:1017D0002B20888108468088A0F5D041043905D0A7
:1017E000EB488088A0F5A641103906D14FF4A070CF
:1017F000E74908804FF4F070488095E0E44880881D
:10180000A0F50941893907D12220E14908814E20FC
:1018100048814F20888187E0DD488088A0F5AA4173
:10182000103910D14FF43050D94908814FF4285065
:1018300048814FF42C5088814FF4F07008804FF4A9
:101840004870488070E02220D149088120204881DA
:101850002120888168E00120CD4988714FF4A07073
:101860000880F020488008468088A0F5134141395F
:1018700005D0C7488088A0F5A641103907D12C2093
:10188000C34908812A2048812B20888139E0C0483B
:101890008088A0F5D041043907D12C20BC490881AB
:1018A0002B2048812A2088812BE0B9488088A0F528
:1018B0000941893907D12220B54908814F20488143
:1018C0004E2088811DE0B2488088A0F5AA411039D9
:1018D00010D14FF43050AE4908814FF42850488160
:1018E0004FF42C5088814FF4487008804FF4F0700A
:1018F000488006E02220A649088121204881202036
:101900008881A3488088A0F5D041043905D0A0483B
:101910008088A0F5A641103906D14FF4F0709C499B
:1019200008804FF4A07048800020FFF7CEFB10BD68
:101930002DE9FF4F04460D4616461F46A019401ECE
:1019400086B2E819401E87B291488088A0F51341FD
:1019500041390BD08E488088A0F5A641103905D0BA
:101960008B488088A0F5D041043975D188494889D1
:10197000FFF7F8F84FF4807086490861400048612D
:1019800020128549086080208249486108618000F2
:1019900008614010086140004861E0B27E4908607B
:1019A00080207C494861086180000861401008611E
:1019B00040004861301278490860802075494861CC
:1019C0000861800008614010086140004861F0B281
:1019D0007149086080206F49486108618000086192
:1019E0006B498889FFF7BEF84FF480706949086138
:1019F00040004861281268490860802065494861B4
:101A00000861800008614010086140004861E8B248
:101A10006149086080205F49486108618000086171
:101A2000401008614000486138125B49086080201E
:101A30005849486108618000086140100861400011
:101A40004861F8B2544908608020524948610861F1
:101A500080000861FAE0FFE74D488088A0F5AA41C0
:101A600010397DD14A494889FFF77CF84FF48070DE
:101A700048490861400048612012474908608020B9
:101A80004449486108618000086141494989491C0D
:101A900088B2FFF767F84FF480703E490861400054
:101AA0004861E0B23C49086080203A4948610861D9
:101AB0008000086136494989891C88B2FFF752F8CD
:101AC0004FF4807033490861400048613012324958
:101AD000086080202F4948610861800008612C4916
:101AE0004989C91C88B2FFF73DF84FF48070294935
:101AF000086140004861F0B227490860802025490C
:101B0000486108618000086121498889FFF72AF847
:101B10004FF480701F4908614000486128121E4937
:101B2000086080201B4948610861800008611849ED
:101B30008989491C88B2FFF715F84FF48070154960
:101B4000086140004861E8B21349086080201149EB
:101B500048610861800008610D498989891C00E09D
:101B60002EE088B2FEF7FEFF4FF48070094908614D
:101B700040004861381208490860802005494861E2
:101B800008618000086102498989C91C88B205E0A2
:101B900040000020001001400C0C0140FEF7E2FF65
:101BA0004FF48070FE49086140004861F8B2FD4979
:101BB00008608020FA49486108618000086145E0BA
:101BC000F948807901280ED1A846B946F648008820
:101BD000801B401E80B20190F3480088001B401E0D
:101BE00080B2009003E0A046B14601950097EE4810
:101BF0008088A0F5094189390CD14FF0440AD346B9
:101C000048EA09201FFA80F8C14645200390462083
:101C1000029007E04FF0500A4FF0510B5220039012
:101C20005320029041465046FEF7DBFF4946584696
:101C3000FEF7D7FF01990398FEF7D3FF00990298AA
:101C4000FEF7CFFF29462046FFF708F8BDE8FF8FD3
:101C500070B504460026D448058840884543D248DC
:101C60008088A0F5D041043916D1CF488079012869
:101C700012D10020CC4988712A2048812B208881EC
:101C800000210846FEF7EAFF0120C74988712B2092
:101C900048812A20888103E000210846FEF7DEFF04
:101CA000FEF7BBFF00260DE04FF48070BC490861D1
:101CB00040004861BB4804608020486108618000A2
:101CC0000861761CAE42EFD370BD10B5B74880698D
:101CD00040F00800B54988610846806940F010006E
:101CE00088610846806940F001008861AC4840681E
:101CF0006FF30B00AA4948600846406840F2333150
:101D00000843A74948600846006820F07F40086003
:101D10000846006840F04C5008600846C06840F42F
:101D2000F860C8604FF033309E4908390860091FD9
:101D300008604FF6FF709B490860322007F0CEFA2A
:101D400001210020FEF74DFF322007F0C7FA0020E6
:101D5000FEF75BFF9449888008468088FF280ADBED
:101D600008468088A0F57F41FF3904D08E488088DE
:101D7000B0F5134F7ED1D320FEF7F4FEFEF700FF3F
:101D8000FEF7FEFEFEF7FCFE874988800846808845
:101D90004FF6FF7101EA002083498880FEF7F0FECC
:101DA0008149898808438049888008468088A0F551
:101DB000134141396CD0BF20FEF7D4FEFEF7E0FEA0
:101DC000FEF7DEFEFEF7DCFEFEF7DAFE76498880DF
:101DD000084680884FF6FF7101EA0020724988802A
:101DE000FEF7CEFE7049898808436F49888008460F
:101DF0008088A0F5D04104394AD0D420FEF7B2FE45
:101E0000FEF7BEFEFEF7BCFEFEF7BAFE664988800E
:101E1000084680884FF6FF7101EA002062498880F9
:101E2000FEF7AEFE6049898808435F49888008460E
:101E30008088A0F5A64110392AD04FF45A40FEF709
:101E400091FEFEF79DFE4FF45B40FEF78BFEFEF722
:101E500097FE55498880084680884FF6FF7101EA51
:101E60000020514988804FF45C40FEF77BFEFEF76E
:101E700087FE00E00CE04C49898808434A49888085
:101E800008468088B0F5004F02D145F21050888096
:101E90004548818846A008F0A3F943488088A0F50A
:101EA000134141397AD1CF20FEF75CFE4FF48070A8
:101EB0003B4908614000486100203A4908608020A1
:101EC000374948610861800008614010086140009E
:101ED0004861C12033490860802031494861086168
:101EE00080000861401008614000486130202D49A1
:101EF000086080202A494861086180000861ED205F
:101F0000FEF730FE4FF480702549086140004861BB
:101F100064202449086080202149486108618000CC
:101F20000861401008614000486103201D490860B5
:101F300080201B49486108618000086140100861E9
:101F40004000486112201749086080201449486108
:101F500008618000086140100861400048618120EC
:101F60001049086080200E494861086180000861BE
:101F7000E820FEF7F7FD4FF4807009490861400042
:101F8000486185200749086080200549486108614B
:101F90008000086140100861400011E08BE3000000
:101FA000001001400C0C01404000002000100240D5
:101FB000204C43442049443A25780D0A0000000093
:101FC00048611020FE4908608020FE494861086190
:101FD0008000086140100861400048617A20F8499B
:101FE00008608020F7494861086180000861CB20C3
:101FF000FEF7B8FD4FF48070F24908614000486177
:102000003920EF4908608020EE494861086180006E
:10201000086140100861400048612C20E8490860D0
:102020008020E8494861086180000861401008612B
:10203000400048610020E24908608020E149486191
:102040000861800008614010086140004861342048
:10205000DB4908608020DB49486108618000086135
:1020600040100861400048610220D5490860802086
:10207000D4494861086180000861F720FEF772FDCD
:102080004FF48070CF490861400048612020CC495E
:1020900008608020CB494861086180000861EA201F
:1020A000FEF760FD4FF48070C6490861400048614A
:1020B0000020C34908608020C2494861086180004F
:1020C000086140100861400048610020BC49086078
:1020D0008020BC494861086180000861C020FEF78B
:1020E00041FD4FF48070B7490861400048611B20F2
:1020F000B34908608020B3494861086180000861E5
:10210000C120FEF72FFD4FF48070AE4908614000FA
:1021100048610120AA4908608020AA4948610861F5
:1021200080000861C520FEF71DFD4FF48070A549B1
:102130000861400048613020A14908608020A14921
:1021400048610861800008614010086140004861F2
:1021500030209B49086080209A49486108618000CE
:102160000861C720FEF7FEFC4FF4807095490861B6
:1021700040004861B7209249086080209149486139
:102180000861800008613620FEF7ECFC4FF4807097
:102190008C490861400048614820894908608020D6
:1021A000884948610861800008613A20FEF7DAFC3E
:1021B0004FF4807083490861400048615520804990
:1021C000086080207F494861086180000861B12073
:1021D000FEF7C8FC4FF480707A49086140004861FE
:1021E00000207749086080207649486108618000B6
:1021F000086140100861400048611A207049086079
:10220000802070494861086180000861B620FEF7AF
:10221000A9FC4FF480706B490861400048610A20B6
:10222000674908608020674948610861800008614B
:102230004010086140004861A22061490860802088
:1022400060494861086180000861F220FEF78AFC5D
:102250004FF480705B490861400048610020584994
:102260000860802057494861086180000861262085
:10227000FEF778FC4FF480705249086140004861D5
:1022800001204F49086080204E4948610861800064
:102290000861E020FEF766FC4FF480704949086150
:1022A000400048610F204649086080204549486148
:1022B00008618000086140100861400048612A20E0
:1022C0003F49086080203F494861086180000861FB
:1022D000401008614000486128203949086080208A
:1022E0003849486108618000086140100861400079
:1022F00048610820324908608020324948610861FD
:102300008000086140100861400048610E202C499F
:10231000086080202B4948610861800008614010F6
:10232000086140004861082025490860802025494F
:102330004861086180000861401008614000486100
:1023400054201F49086080201E49486108618000B0
:1023500008614010086140004861A92018490860E0
:1023600080201849486108618000086140100861B8
:1023700040004861432012490860802011494861AB
:1023800008618000086140100861400048610A202F
:102390000B49086080200B49486108618000086192
:1023A00040100861400048610F2005490860802006
:1023B000044948610861800008614010086103E039
:1023C0000C0C014000100140400048610020FD4914
:1023D00008608020FC494861086180000861401065
:1023E0000861400048610020F64908608020F649F5
:1023F0004861086180000861401008614000486140
:102400000020F04908608020EF49486108618000A1
:10241000086140100861400048610020E9490860F7
:102420008020E9494861086180000861E120FEF7E9
:1024300099FB4FF48070E449086140004861002036
:10244000E04908608020E049486108618000086137
:1024500040100861400048611520DA49086080207A
:10246000D949486108618000086140100861400056
:1024700048611720D34908608020D349486108612A
:102480008000086140100861400048610720CD4984
:1024900008608020CC4948610861800008614010D4
:1024A0000861400048611120C64908608020C64983
:1024B000486108618000086140100861400048617F
:1024C0000620C04908608020BF494861086180003B
:1024D000086140100861400048612B20B94908603C
:1024E0008020B94948610861800008614010086196
:1024F000400048615620B34908608020B2494861D5
:1025000008618000086140100861400048613C207B
:10251000AC4908608020AC494861086180000861CE
:1025200040100861400048610520A64908608020ED
:10253000A5494861086180000861401008614000B9
:10254000486110209F49086080209F4948610861C8
:102550008000086140100861400048610F209949DF
:102560000860802098494861086180000861401037
:102570000861400048613F209249086080209249EC
:1025800048610861800008614010086140004861AE
:102590003F208C49086080208B4948610861800099
:1025A000086140100861400048610F2085490860BB
:1025B0008020854948610861800008612B20FEF772
:1025C000D1FA4FF4807080490861400048610020D2
:1025D0007C49086080207C4948610861800008616E
:1025E0004010086140004861002076490860802062
:1025F0007549486108618000086140100861400029
:10260000486101206F49086080206F494861086176
:102610008000086140100861400048613F2069491E
:1026200008608020684948610861800008612A20AC
:10263000FEF798FA4FF480706349086140004861E2
:1026400000206049086080205F494861086180007F
:102650000861401008614000486100205949086045
:102660008020594948610861800008614010086174
:102670004000486100205349086080205249486169
:102680000861800008614010086140004861EF2047
:102690004C49086080204C4948610861800008610D
:1026A0001120FEF75FFA782006F018FE2920FEF7C9
:1026B00059FA06F05BBA45488088A0F5D041043944
:1026C0007ED11120FEF74EFA142006F007FED0202E
:1026D000FEF748FA4FF480703B49086140004861BA
:1026E0000720384908608020374948610861800028
:1026F000086140100861400048614220314908608B
:1027000080203149486108618000086140100861FB
:10271000400048611D202B49086080202A494861FB
:10272000086180000861D120FEF71CFA4FF4807028
:102730002549086140004861002022490860802046
:10274000214948610861800008614010086140002B
:1027500048611A201B49086080201B4948610861B4
:102760008000086140100861400048610920154957
:102770000860802014494861086180000861D22007
:10278000FEF7F0F94FF480700F490861400048618E
:1027900001200C49086080200B49486108618000D5
:1027A0000861401008614000486122200549086026
:1027B000802005494861086180000861C02007E069
:1027C000CFE100000C0C014000100140400000204F
:1027D000FEF7C8F94FF48070FE4908614000486177
:1027E0001020FD4908608020FA4948610861800096
:1027F000086140100861400048613B20F6490860CC
:102800008020F44948610861800008614010086137
:10281000400048610020F04908608020ED4948618F
:102820000861800008614010086140004861022092
:10283000E94908608020E749486108618000086133
:1028400040100861400048611120E3490860802081
:10285000E0494861086180000861C520FEF782F9FF
:102860004FF48070DB490861400048610320DA4979
:1028700008608020D7494861086180000861C8204D
:10288000FEF770F94FF48070D2490861400048614A
:102890000020D14908608020CE494861086180004D
:1028A000086140100861400048612520CA4908605D
:1028B0008020C849486108618000086140100861B3
:1028C000400048612120C44908608020C149486116
:1028D00008618000086140100861400048610520DF
:1028E000BD4908608020BB494861086180000861DB
:1028F00040100861400048610020B749086080200E
:10290000B4494861086180000861401008614000D6
:1029100048610A20B04908608020AE4948610861DA
:102920008000086140100861400048616520AA49A4
:1029300008608020A7494861086180000861401054
:102940000861400048612520A34908608020A14912
:1029500048610861800008614010086140004861DA
:1029600077209D49086080209A494861086180006D
:102970000861401008614000486150209649086095
:102980008020944948610861800008614010086116
:10299000400048610F209049086080208D494861BF
:1029A0000861800008614010086140004861002013
:1029B0008949086080208749486108618000086172
:1029C000F820FEF7CFF84FF480708249086140008C
:1029D000486101208049086080207E494861086183
:1029E00080000861FE20FEF7BDF84FF48070794941
:1029F00008614000486100207749086080207549DF
:102A00004861086180000861401008614000486129
:102A100002207149086080206E4948610861800089
:102A200008612020FEF79EF83620FEF79BF84FF451
:102A30008070684908614000486108206649086064
:102A40008020644948610861800008613A20FEF7EF
:102A500089F84FF480705F49086140004861552053
:102A60005D49086080205B49486108618000086119
:102A70002B20FEF777F84FF480705649086140002C
:102A8000486100205449086080205249486108612B
:102A900080000861401008614000486100204E49F4
:102AA000086080204B49486108618000086140103F
:102AB000086140004861012047490860802045497D
:102AC0004861086180000861401008614000486169
:102AD0003F204149086080203E49486108618000EC
:102AE00008612A20FEF73EF84FF4807039490861EA
:102AF000400048610020384908608020354948611D
:102B000008618000086140100861400048610020B1
:102B10003149086080202F494861086180000861C0
:102B2000401008614000486101202B490860802066
:102B30002849486108618000086140100861400030
:102B40004861DF20244908608020224948610861EB
:102B500080000861782006F0C1FB2920FEF702F80A
:102B6000A7E51E488088A0F5A641103943F01487D8
:102B7000ED20FDF7F7FF4FF4807016490861400023
:102B800048610120144908608020124948610861A9
:102B9000800008614010086140004861FE200E4935
:102BA000086080200B494861086180000861EE20C0
:102BB000FDF7D8FF4FF48070064908614000486176
:102BC000DE200549086080200249486108618000D4
:102BD000086105E0001001400C0C0140400000209D
:102BE00040100861400048612120FE4908608020B3
:102BF000FD494861086180000861F120FDF7B2FFDE
:102C00004FF48070F8490861400048610120F5499F
:102C100008608020F4494861086180000861DF2075
:102C2000FDF7A0FF4FF48070EF4908614000486154
:102C30001020EC4908608020EB4948610861800061
:102C40000861C420FDF78EFF4FF48070E6490861EB
:102C5000400048618F20E34908608020E2494861D4
:102C6000086180000861C620FDF77CFF4FF480708A
:102C7000DD490861400048610020DA490860802091
:102C8000D94948610861800008614010086140002E
:102C90004861E220D34908608020D3494861086137
:102CA000800008614010086140004861E220CD4981
:102CB00008608020CC4948610861800008614010AC
:102CC000086140004861E220C64908608020C6498A
:102CD0004861086180000861BF20FDF743FF4FF4A1
:102CE0008070C149086140004861AA20BD49086060
:102CF0008020BD494861086180000861B020FDF76F
:102D000031FF4FF48070B8490861400048610D20E0
:102D1000B44908608020B4494861086180000861B6
:102D200040100861400048610020AE4908608020E2
:102D3000AD494861086180000861401008614000A9
:102D400048610D20A74908608020A74948610861B3
:102D50008000086140100861400048610020A149DE
:102D600008608020A0494861086180000861401027
:102D700008614000486111209A49086080209A4902
:102D800048610861800008614010086140004861A6
:102D900000209449086080209349486108618000C0
:102DA0000861401008614000486119208D490860A1
:102DB00080208D49486108618000086140100861E9
:102DC00040004861002087490860802086494861AA
:102DD00008618000086140100861400048612120BE
:102DE000804908608020804948610861800008614E
:102DF000401008614000486100207A490860802046
:102E0000794948610861800008614010086140000C
:102E100048612D207349086080207349486108612A
:102E200080000861401008614000486100206D4941
:102E3000086080206C49486108618000086140108A
:102E40000861400048613D2066490860802066496D
:102E500048610861800008614010086140004861D5
:102E600000206049086080205F4948610861800057
:102E7000086140100861400048615D2059490860C0
:102E8000802059494861086180000861401008614C
:102E90004000486100205349086080205249486141
:102EA00008618000086140100861400048615D20B1
:102EB0004C49086080204C494861086180000861E5
:102EC00040100861400048610020464908608020A9
:102ED00045494861086180000861B120FDF742FE64
:102EE0004FF48070404908614000486180203D49AE
:102EF00008603D4948610861800008614010086130
:102F00004000486100203749086080203649486108
:102F100008618000086140100861400048618B2012
:102F200030490860802030494861086180000861AC
:102F3000401008614000486100202A490860802054
:102F4000294948610861800008614010086140001B
:102F50004861962023490860802023494861086120
:102F600080000861401008614000486100201D4950
:102F7000086080201C494861086180000861B22017
:102F8000FDF7F0FD4FF4807017490861400048617B
:102F900000201449086080201349486108618000BE
:102FA0000861401008614000486100200D49086038
:102FB00080200D4948610861800008614010086167
:102FC00040004861022007490860802006494861A6
:102FD00008618000086140100861400048610020DD
:102FE000004903E00C0C0140001001400860802003
:102FF000FE49486108618000086140100861400096
:1030000048610320FA4908608020F8494861086156
:103010008000086140100861400048610020F449C8
:1030200008608020F1494861086180000861B32090
:10303000FDF798FD4FF48070EC490861400048614D
:103040000020EB4908608020E84948610861800061
:10305000086140100861400048610020E4490860B0
:103060008020E249486108618000086140100861E1
:10307000400048610020DE4908608020DB4948614B
:10308000086180000861401008614000486100202C
:10309000D74908608020D5494861086180000861EF
:1030A00040100861400048610020D149086080203C
:1030B000CE49486108618000086140100861400005
:1030C00048610020CA4908608020C84948610861F9
:1030D0008000086140100861400048610020C44938
:1030E00008608020C1494861086180000861401083
:1030F0000861400048610020BD4908608020BB494C
:103100004861086180000861401008614000486122
:103110000020B74908608020B449486108618000F8
:10312000086140100861400048610020B049086013
:103130008020AE4948610861800008614010086144
:10314000400048610020AA4908608020A7494861E2
:10315000086180000861401008614000486100205B
:10316000A34908608020A149486108618000086186
:10317000401008614000486100209D49086080209F
:103180009A49486108618000086140100861400068
:103190004861002096490860802094494861086190
:1031A000800008614010086140004861002090499B
:1031B000086080208D4948610861800008614010E6
:1031C00008614000486100208949086080208749E3
:1031D0004861086180000861401008614000486152
:1031E0000020834908608020804948610861800090
:1031F0000861401008614000486100207C49086077
:1032000080207A49486108618000086140100861A7
:103210004000486100207649086080207349486179
:10322000086180000861401008614000486100208A
:103230006F49086080206D4948610861800008611D
:103240004010086140004861002069490860802002
:1032500066494861086180000861401008614000CB
:103260004861002062490860802060494861086127
:1032700080000861401008614000486100205C49FE
:103280000860802059494861086180000861401049
:10329000086140004861002055490860802053497A
:1032A0004861086180000861B420FDF75BFC4FF4C1
:1032B00080704E490861400048618B204C4908608D
:1032C00080204A4948610861800008614010086117
:1032D0004000486100204649086080204349486119
:1032E0000861800008614010086140004861962034
:1032F0003F49086080203D494861086180000861BD
:103300004010086140004861002039490860802071
:10331000364948610861800008614010086140003A
:103320004861A12032490860802030494861086125
:1033300080000861401008614000486100202C496D
:103340000860802029494861086180000861B52033
:10335000FDF708FC4FF48070244908614000486183
:1033600002202349086080202049486108618000CC
:103370000861401008614000486100201C49086055
:1033800080201A4948610861800008614010086186
:1033900040004861032016490860802013494861B5
:1033A0000861800008614010086140004861002009
:1033B0000F49086080200D4948610861800008615C
:1033C00040100861400048610420094908608020DD
:1033D00006494861086180000861401008614000AA
:1033E0004861002002490860802003E0001001408D
:1033F0000C0C0140FE494861086180000861B6205C
:10340000FDF7B0FB4FF48070F94908614000486156
:103410000020F84908608020F54948610861800073
:10342000086140100861400048610020F1490860CF
:103430008020EF494861086180000861B720FDF7EE
:1034400091FB4FF48070EA49086140004861002018
:10345000E84908608020E649486108618000086109
:1034600040100861400048610020E2490860802067
:10347000DF49486108618000086140100861400030
:1034800048613F20DB4908608020D94948610861D4
:103490008000086140100861400048610020D54963
:1034A00008608020D24948610861800008614010AE
:1034B0000861400048615E20CE4908608020CC4908
:1034C000486108618000086140100861400048615F
:1034D0000020C84908608020C54948610861800013
:1034E000086140100861400048616420C1490860DB
:1034F0008020BF4948610861800008614010086170
:10350000400048610020BB4908608020B8494861FC
:1035100008618000086140100861400048618C200B
:10352000B44908608020B2494861086180000861A0
:1035300040100861400048610020AE4908608020CA
:10354000AB49486108618000086140100861400093
:103550004861AC20A74908608020A54948610861FE
:103560008000086140100861400048610020A149C6
:10357000086080209E494861086180000861401011
:10358000086140004861DC209A4908608020984921
:10359000486108618000086140100861400048618E
:1035A00000209449086080209149486108618000AA
:1035B0000861401008614000486170208D49086032
:1035C00080208B49486108618000086140100861D3
:1035D0004000486100208749086080208449486194
:1035E0000861800008614010086140004861902037
:1035F0008049086080207E49486108618000086138
:10360000401008614000486100207A49086080202D
:1036100077494861086180000861401008614000F6
:103620004861EB2073490860802071494861086156
:1036300080000861401008614000486100206D4929
:10364000086080206A494861086180000861401074
:10365000086140004861DC206649086080206449B8
:1036600048610861800008614010086140004861BD
:1036700000206049086080205D4948610861800041
:103680000861B820FDF76EFA4FF480705849086160
:103690004000486100205749086080205449486133
:1036A0000861800008614010086140004861002006
:1036B0005049086080204E494861086180000861D7
:1036C000401008614000486100204A49086080209D
:1036D0004749486108618000086140100861400066
:1036E00048610020434908608020414948610861E1
:1036F00080000861401008614000486100203D4999
:10370000086080203A4948610861800008614010E3
:103710000861400048610020364908608020344933
:1037200048610861800008614010086140004861FC
:1037300000203049086080202D49486108618000E0
:103740000861401008614000486100202949086074
:10375000802027494861086180000861BA20FDF790
:1037600001FA4FF48070224908614000486124202A
:103770002049086080201E49486108618000086176
:10378000401008614000486100201A49086080200C
:1037900017494861086180000861401008614000D5
:1037A0004861002013490860802011494861086180
:1037B00080000861401008614000486100200D4908
:1037C000086080200A494861086180000861C120C2
:1037D000FDF7C8F94FF48070054908614000486161
:1037E000202004490860802001494861086103E005
:1037F000001001400C0C014080000861401008617D
:10380000400048610020FE4908608020FD49486171
:103810000861800008614010086140004861542040
:10382000F74908608020F749486108618000086115
:1038300040100861400048610020F1490860802084
:10384000F04948610861800008614010086140004B
:103850004861FF20EA4908608020EA494861086120
:103860008000086140100861400048610020E44980
:1038700008608020E3494861086180000861C22037
:10388000FDF770F94FF48070DE490861400048612F
:103890000A20DB4908608020DA494861086180001D
:1038A000086140100861400048610020D449086068
:1038B0008020D44948610861800008614010086197
:1038C000400048610420CE4908608020CD4948610D
:1038D00008618000086140100861400048610020D4
:1038E000C74908608020C7494861086180000861B5
:1038F000C320FDF737F94FF48070C24908614000DA
:1039000048613C20BE4908608020BE49486108618A
:103910008000086140100861400048610020B849FB
:1039200008608020B7494861086180000861401044
:103930000861400048613A20B14908608020B149DF
:1039400048610861800008614010086140004861DA
:103950000020AB4908608020AA49486108618000C6
:10396000086140100861400048613920A44908609E
:103970008020A44948610861800008614010086106
:103980004000486100209E49086080209D494861B0
:1039900008618000086140100861400048613720DC
:1039A0009749086080209749486108618000086154
:1039B0004010086140004861002091490860802063
:1039C000904948610861800008614010086140002A
:1039D00048613C208A49086080208A494861086122
:1039E000800008614010086140004861002084495F
:1039F00008608020834948610861800008614010A8
:103A000008614000486136207D49086080207D497A
:103A10004861086180000861401008614000486109
:103A2000002077490860802076494861086180005D
:103A30000861401008614000486132207049086008
:103A40008020704948610861800008614010086169
:103A50004000486100206A49086080206949486147
:103A600008618000086140100861400048612F2013
:103A700063490860802063494861086180000861EB
:103A8000401008614000486100205D4908608020C6
:103A90005C4948610861800008614010086140008D
:103AA00048612C20564908608020564948610861C9
:103AB00080000861401008614000486100205049C2
:103AC000086080204F49486108618000086140100B
:103AD000086140004861292049490860802049491F
:103AE0004861086180000861401008614000486139
:103AF00000204349086080204249486108618000F5
:103B00000861401008614000486126203C49086077
:103B100080203C49486108618000086140100861CC
:103B200040004861002036490860802035494861DE
:103B3000086180000861401008614000486124204D
:103B40002F49086080202F49486108618000086182
:103B50004010086140004861002029490860802029
:103B600028494861086180000861401008614000F0
:103B70004861242022490860802022494861086168
:103B800080000861401008614000486100201C4925
:103B9000086080201B49486108618000086140106E
:103BA00008614000486123201549086080201549BC
:103BB0004861086180000861401008614000486168
:103BC00000200F49086080200E494861086180008C
:103BD000086140100861400048613C2008490860C5
:103BE0008020084948610861800008614010086130
:103BF000400048610020024908608020014903E03C
:103C00000C0C01400010014048610861800008610F
:103C100040100861400048613620FE49086080205D
:103C2000FD4948610861800008614010086140005A
:103C300048610020F74908608020F7494861086121
:103C40008000086140100861400048613220F1495D
:103C500008608020F04948610861800008614010D8
:103C60000861400048610020EA4908608020EA4974
:103C700048610861800008614010086140004861A7
:103C80002F20E44908608020E349486108618000F2
:103C9000086140100861400048610020DD4908606B
:103CA0008020DD494861086180000861401008619A
:103CB000400048612C20D74908608020D6494861DF
:103CC00008618000086140100861400048610020E0
:103CD000D04908608020D0494861086180000861AF
:103CE00040100861400048612920CA4908608020CE
:103CF000C9494861086180000861401008614000BE
:103D000048610020C34908608020C34948610861B8
:103D10008000086140100861400048612620BD49CC
:103D200008608020BC49486108618000086140103B
:103D30000861400048610020B64908608020B6490B
:103D400048610861800008614010086140004861D6
:103D50002420B04908608020AF4948610861800094
:103D6000086140100861400048610020A9490860CE
:103D70008020A949486108618000086140100861FD
:103D8000400048612420A34908608020A24948617E
:103D9000086180000861401008614000486100200F
:103DA0009C49086080209C49486108618000086146
:103DB0004010086140004861232096490860802037
:103DC0009549486108618000086140100861400021
:103DD000486100208F49086080208F494861086150
:103DE00080000861C420FCF7BDFE4FF480708A4952
:103DF0000861400048616220864908608020864949
:103E00004861086180000861401008614000486115
:103E100000208049086080207F4948610861800057
:103E20000861401008614000486105207949086038
:103E3000802079494861086180000861401008616C
:103E40004000486100207349086080207249486141
:103E500008618000086140100861400048618420CA
:103E60006C49086080206C494861086180000861E5
:103E700040100861400048610020664908608020C9
:103E80006549486108618000086140100861400090
:103E90004861F0205F49086080205F4948610861FF
:103EA00080000861401008614000486100205949C5
:103EB000086080205849486108618000086140100E
:103EC000086140004861182052490860802052492A
:103ED0004861086180000861401008614000486145
:103EE00000204C49086080204B49486108618000EF
:103EF00008614010086140004861A42045490860FD
:103F000080204549486108618000086140100861CF
:103F10004000486100203F49086080203E494861D8
:103F20000861800008614010086140004861182065
:103F3000384908608020384948610861800008617C
:103F4000401008614000486100203249086080202C
:103F500031494861086180000861401008614000F3
:103F6000486150202B49086080202B494861086136
:103F70008000086140100861400048610020254928
:103F80000860802024494861086180000861401071
:103F90000861400048610C201E49086080201E49CD
:103FA0004861086180000861401008614000486174
:103FB0000020184908608020174948610861800086
:103FC00008614010086140004861172011490860ED
:103FD0008020114948610861800008614010086133
:103FE0004000486100200B49086080200A49486170
:103FF0000861800008614010086140004861952018
:104000000449086080200449486108618000086113
:10401000401003E00C0C014000100140086140001A
:1040200048610020FE4908608020FE49486108611F
:10403000800008614010086140004861F320F849A1
:1040400008608020F74948610861800008614010DD
:104050000861400048610020F14908608020F14972
:1040600048610861800008614010086140004861B3
:10407000E620EB4908608020EA4948610861800039
:10408000086140100861400048610020E449086070
:104090008020E4494861086180000861C520FCF780
:1040A00061FD4FF48070DF490861400048613220B3
:1040B000DB4908608020DB494861086180000861B5
:1040C00040100861400048610020D5490860802008
:1040D000D4494861086180000861401008614000CF
:1040E00048614420CE4908608020CE49486108617B
:1040F0008000086140100861400048610020C84904
:1041000008608020C749486108618000086140104C
:104110000861400048616520C14908608020C149AC
:1041200048610861800008614010086140004861F2
:104130000020BB4908608020BA49486108618000BE
:10414000086140100861400048617620B449086069
:104150008020B4494861086180000861401008610E
:10416000400048610020AE4908608020AD494861A8
:1041700008618000086140100861400048618820A3
:10418000A74908608020A74948610861800008614C
:1041900040100861400048610020A149086080206B
:1041A000A0494861086180000861C620FCF7DAFC7C
:1041B0004FF480709B490861400048612020984975
:1041C00008608020974948610861800008614010BC
:1041D00008614000486100209149086080209149B1
:1041E0004861086180000861401008614000486132
:1041F00017208B49086080208A4948610861800047
:10420000086140100861400048610020844908604E
:10421000802084494861086180000861401008617D
:104220004000486101207E49086080207D49486146
:10423000086180000861401008614000486100206A
:1042400077490860802077494861086180000861EB
:10425000C720FCF787FC4FF480707249086140006A
:10426000486100206E49086080206E4948610861FD
:1042700080000861401008614000486100206849E2
:10428000086080206749486108618000086140102B
:104290000861400048610020614908608020614950
:1042A0004861086180000861401008614000486171
:1042B00000205B49086080205A49486108618000FD
:1042C0000861C820FCF74EFC4FF480705549086126
:1042D00040004861002052490860802051494861EF
:1042E00008618000086140100861400048610020BA
:1042F0004B49086080204B49486108618000086193
:104300004010086140004861002045490860802055
:10431000444948610861800008614010086140001C
:10432000486100203E49086080203E49486108619C
:1043300080000861C920FCF715FC4FF480703949F2
:1043400008614000486100203549086080203549F7
:1043500048610861800008614010086140004861C0
:1043600000202F49086080202E49486108618000A4
:104370000861401008614000486100202849086039
:104380008020284948610861800008614010086168
:10439000400048610020224908608020214948618E
:1043A00008618000086140100861400048610020F9
:1043B0001B49086080201B49486108618000086132
:1043C00040100861400048610020154908608020C5
:1043D000144948610861800008614010086140008C
:1043E000486100200E49086080200E49486108613C
:1043F00080000861401008614000486100200849C1
:104400000860802007494861086180000861401009
:10441000086140004861002001490860802003E0F5
:104420000C0C014000100140FE4948610861800009
:10443000086140100861400048610020FA490860A6
:104440008020F849486108618000086140100861D7
:10445000400048610020F44908608020F14948612B
:104460000861800008614010086140004861002038
:10447000ED4908608020EB494861086180000861CF
:1044800040100861400048610020E7490860802032
:10449000E4494861086180000861401008614000FB
:1044A00048610020E04908608020DE4948610861D9
:1044B0008000086140100861400048610020DA492E
:1044C00008608020D7494861086180000861401079
:1044D0000861400048610020D34908608020D1492C
:1044E0004861086180000861E020FCF73BFB4FF465
:1044F0008070CC490861400048611620CA490860B4
:104500008020C84948610861800008614010086146
:10451000400048610020C44908608020C1494861CA
:1045200008618000086140100861400048611C205B
:10453000BD4908608020BB4948610861800008616E
:1045400040100861400048610020B74908608020A1
:10455000B44948610861800008614010086140006A
:1045600048612120B04908608020AE494861086157
:104570008000086140100861400048610020AA499D
:1045800008608020A74948610861800008614010E8
:104590000861400048613620A34908608020A14995
:1045A000486108618000086140100861400048616E
:1045B00000209D49086080209A4948610861800078
:1045C0000861401008614000486146209649086033
:1045D00080209449486108618000086140100861AA
:1045E0004000486100209049086080208D49486162
:1045F0000861800008614010086140004861522055
:104600008949086080208749486108618000086105
:104610004010086140004861002083490860802004
:1046200080494861086180000861401008614000CD
:10463000486164207C49086080207A4948610861AB
:104640008000086140100861400048610020764900
:10465000086080207349486108618000086140104B
:104660000861400048617A206F49086080206D49E8
:10467000486108618000086140100861400048619D
:10468000002069490860802066494861086180000F
:10469000086140100861400048618B206249086051
:1046A000802060494861086180000861401008610D
:1046B0004000486100205C490860802059494861F9
:1046C000086180000861401008614000486199203D
:1046D000554908608020534948610861800008619D
:1046E000401008614000486100204F490860802068
:1046F0004C49486108618000086140100861400031
:104700004861A820484908608020464948610861FE
:104710008000086140100861400048610020424963
:10472000086080203F4948610861800008614010AE
:10473000086140004861B9203B4908608020394940
:1047400048610861800008614010086140004861CC
:1047500000203549086080203249486108618000A6
:1047600008614010086140004861C4202E4908607B
:1047700080202C4948610861800008614010086170
:104780004000486100202849086080202549486190
:104790000861800008614010086140004861CA203B
:1047A0002149086080201F49486108618000086134
:1047B000401008614000486100201B4908608020CB
:1047C0001849486108618000086140100861400094
:1047D0004861D2201449086080201249486108616C
:1047E00080000861401008614000486100200E49C7
:1047F000086080200B494861086180000861401012
:10480000086140004861D9200749086080200549B7
:1048100048610861800008614010086140004861FB
:10482000002003E0001001400C0C0140FE4908602C
:104830008020FE49486108618000086140100861DD
:1048400040004861E020F84908608020F74948614D
:104850000861800008614010086140004861002044
:10486000F14908608020F1494861086180000861D1
:104870004010086140004861F320EB490860802047
:10488000EA49486108618000086140100861400001
:1048900048610020E44908608020E44948610861DB
:1048A00080000861E120FCF75DF94FF48070DF497A
:1048B0000861400048611620DB4908608020DB4920
:1048C000486108618000086140100861400048614B
:1048D0000020D54908608020D449486108618000E3
:1048E000086140100861400048611C20CE49086002
:1048F0008020CE494861086180000861401008614D
:10490000400048610020C84908608020C7494861CC
:104910000861800008614010086140004861222061
:10492000C14908608020C149486108618000086170
:1049300040100861400048610020BB4908608020A9
:10494000BA49486108618000086140100861400070
:1049500048613620B44908608020B4494861086144
:104960008000086140100861400048610020AE49A5
:1049700008608020AD4948610861800008614010EE
:104980000861400048614520A74908608020A74988
:10499000486108618000086140100861400048617A
:1049A0000020A14908608020A0494861086180007A
:1049B0000861401008614000486152209A4908602F
:1049C00080209A49486108618000086140100861B0
:1049D0004000486100209449086080209349486164
:1049E000086180000861401008614000486164204F
:1049F0008D49086080208D49486108618000086108
:104A0000401008614000486100208749086080200C
:104A100086494861086180000861401008614000D3
:104A200048617A2080490860802080494861086197
:104A300080000861401008614000486100207A4908
:104A40000860802079494861086180000861401051
:104A50000861400048618B207349086080207349D9
:104A600048610861800008614010086140004861A9
:104A700000206D49086080206C4948610861800011
:104A8000086140100861400048619920664908604B
:104A90008020664948610861800008614010086113
:104AA0004000486100206049086080205F494861FB
:104AB0000861800008614010086140004861A8203A
:104AC000594908608020594948610861800008619F
:104AD0004010086140004861002053490860802070
:104AE0005249486108618000086140100861400037
:104AF0004861B9204C49086080204C4948610861F0
:104B0000800008614010086140004861002046496B
:104B100008608020454948610861800008614010B4
:104B2000086140004861C4203F49086080203F4937
:104B300048610861800008614010086140004861D8
:104B400000203949086080203849486108618000A8
:104B500008614010086140004861CA20324908607D
:104B60008020324948610861800008614010086176
:104B70004000486100202C49086080202B49486192
:104B80000861800008614010086140004861D2203F
:104B90002549086080202549486108618000086136
:104BA000401008614000486100201F4908608020D3
:104BB0001E4948610861800008614010086140009A
:104BC0004861D82018490860802018494861086168
:104BD00080000861401008614000486100201249CF
:104BE0000860802011494861086180000861401018
:104BF000086140004861E0200B49086080200B49B3
:104C00004861086180000861401008614000486107
:104C1000002005490860802004494861086180003F
:104C200008614010086103E00C0C014000100140D5
:104C300040004861F320FE4908608020FD4948613A
:104C40000861800008614010086140004861002050
:104C5000F74908608020F7494861086180000861D1
:104C6000E220FBF77FFF4FF48070F24908614000BB
:104C700048610520EE4908608020EE4948610861DE
:104C80008000086140100861400048610020E84948
:104C900008608020E7494861086180000861401091
:104CA0000861400048610B20E14908608020E1492B
:104CB0004861086180000861401008614000486157
:104CC0000020DB4908608020DA49486108618000E3
:104CD000086140100861400048611B20D449086009
:104CE0008020D44948610861800008614010086153
:104CF000400048610020CE4908608020CD494861CD
:104D0000086180000861401008614000486134205B
:104D1000C74908608020C749486108618000086170
:104D200040100861400048610020C14908608020AF
:104D3000C049486108618000086140100861400076
:104D400048614420BA4908608020BA494861086136
:104D50008000086140100861400048610020B449AB
:104D600008608020B34948610861800008614010F4
:104D70000861400048614F20AD4908608020AD497E
:104D80004861086180000861401008614000486186
:104D90000020A74908608020A6494861086180007A
:104DA000086140100861400048616120A049086026
:104DB0008020A049486108618000086140100861B6
:104DC0004000486100209A49086080209949486164
:104DD0000861800008614010086140004861792046
:104DE0009349086080209349486108618000086108
:104DF000401008614000486100208D490860802013
:104E00008C494861086180000861401008614000D9
:104E10004861882086490860802086494861086189
:104E2000800008614010086140004861002080490E
:104E3000086080207F494861086180000861401057
:104E400008614000486197207949086080207949CD
:104E500048610861800008614010086140004861B5
:104E60000020734908608020724948610861800011
:104E700008614010086140004861A6206C49086044
:104E800080206C4948610861800008614010086119
:104E900040004861002066490860802065494861FB
:104EA0000861800008614010086140004861B72037
:104EB0005F49086080205F4948610861800008619F
:104EC0004010086140004861002059490860802076
:104ED000584948610861800008614010086140003D
:104EE0004861C220524908608020524948610861E7
:104EF00080000861401008614000486100204C4972
:104F0000086080204B4948610861800008614010BA
:104F1000086140004861C720454908608020454934
:104F200048610861800008614010086140004861E4
:104F300000203F49086080203E49486108618000A8
:104F400008614010086140004861D120384908607C
:104F5000802038494861086180000861401008617C
:104F60004000486100203249086080203149486192
:104F70000861800008614010086140004861D62047
:104F80002B49086080202B49486108618000086136
:104F900040100861400048610020254908608020D9
:104FA00024494861086180000861401008614000A0
:104FB0004861DD201E49086080201E494861086163
:104FC00080000861401008614000486100201849D5
:104FD000086080201749486108618000086140101E
:104FE000086140004861F3201149086080201149A0
:104FF0004861086180000861401008614000486114
:1050000000200B49086080200A494861086180003F
:105010000861E320FBF7A6FD4FF4807005490861A5
:10502000400048610520024908608020014903E0F2
:105030000C0C0140001001404861086180000861CB
:1050400040100861400048610020FE49086080204F
:10505000FD49486108618000086140100861400016
:1050600048610A20F74908608020F74948610861D3
:105070008000086140100861400048610020F1494B
:1050800008608020F0494861086180000861401094
:105090000861400048611C20EA4908608020EA4914
:1050A0004861086180000861401008614000486163
:1050B0000020E44908608020E349486108618000DD
:1050C000086140100861400048613320DD490860F4
:1050D0008020DD4948610861800008614010086156
:1050E000400048610020D74908608020D6494861C7
:1050F0000861800008614010086140004861442058
:10510000D04908608020D04948610861800008616A
:1051100040100861400048610020CA4908608020B2
:10512000C949486108618000086140100861400079
:1051300048615020C34908608020C3494861086124
:105140008000086140100861400048610020BD49AE
:1051500008608020BC4948610861800008614010F7
:105160000861400048616220B64908608020B64965
:105170004861086180000861401008614000486192
:105180000020B04908608020AF4948610861800074
:10519000086140100861400048617820A949086012
:1051A0008020A949486108618000086140100861B9
:1051B000400048610020A34908608020A24948615E
:1051C0000861800008614010086140004861882043
:1051D0009C49086080209C49486108618000086102
:1051E0004010086140004861002096490860802016
:1051F00095494861086180000861401008614000DD
:10520000486197208F49086080208F494861086174
:105210008000086140100861400048610020894911
:10522000086080208849486108618000086140105A
:10523000086140004861A6208249086080208249B8
:1052400048610861800008614010086140004861C1
:1052500000207C49086080207B494861086180000B
:1052600008614010086140004861B7207549086036
:10527000802075494861086180000861401008611C
:105280004000486100206F49086080206E494861F5
:105290000861800008614010086140004861C22038
:1052A0006849086080206849486108618000086199
:1052B0004010086140004861002062490860802079
:1052C0006149486108618000086140100861400040
:1052D0004861C7205B49086080205B4948610861DC
:1052E0008000086140100861400048610020554975
:1052F00008608020544948610861800008614010BE
:10530000086140004861D1204E49086080204E4924
:1053100048610861800008614010086140004861F0
:1053200000204849086080204749486108618000A2
:1053300008614010086140004861D520414908607B
:10534000802041494861086180000861401008617F
:105350004000486100203B49086080203A4948618C
:105360000861800008614010086140004861DD204C
:105370003449086080203449486108618000086130
:10538000401008614000486100202E4908608020DC
:105390002D494861086180000861401008614000A3
:1053A0004861F32027490860802027494861086147
:1053B00080000861401008614000486100202149D8
:1053C0000860802020494861086180000861E4206D
:1053D000FBF7C8FB4FF480701B490861400048612F
:1053E0000120184908608020174948610861800041
:1053F00008614010086140004861002011490860C0
:1054000080201149486108618000086140100861EE
:105410004000486101200B49086080200A4948612A
:105420000861800008614010086140004861002068
:1054300004490860802004494861086180000861CF
:10544000401003E00C0C01400010014008614000D6
:1054500048610220FE4908608020FE4948610861D9
:105460008000086140100861400048610020F84950
:1054700008608020F7494861086180000861401099
:105480000861400048612A20F14908608020F14904
:10549000486108618000086140100861400048616F
:1054A0000020EB4908608020EA49486108618000DB
:1054B000086140100861400048613C20E4490860F0
:1054C0008020E4494861086180000861401008615B
:1054D000400048610020DE4908608020DD494861C5
:1054E00008618000086140100861400048614B205D
:1054F000D74908608020D749486108618000086169
:1055000040100861400048610020D14908608020B7
:10551000D04948610861800008614010086140007E
:1055200048615D20CA4908608020CA494861086115
:105530008000086140100861400048610020C449B3
:1055400008608020C34948610861800008614010FC
:105550000861400048617420BD4908608020BD4951
:10556000486108618000086140100861400048619E
:105570000020B74908608020B64948610861800072
:10558000086140100861400048618420B04908600B
:105590008020B049486108618000086140100861BE
:1055A000400048610020AA4908608020A94948615C
:1055B0000861800008614010086140004861932044
:1055C000A34908608020A349486108618000086100
:1055D000401008614000486100209D49086080201B
:1055E0009C494861086180000861401008614000E2
:1055F0004861A22096490860802096494861086168
:105600008000086140100861400048610020904916
:10561000086080208F49486108618000086140105F
:10562000086140004861B3208949086080208949A9
:1056300048610861800008614010086140004861CD
:105640000020834908608020824948610861800009
:1056500008614010086140004861BE207C49086034
:1056600080207C4948610861800008614010086121
:1056700040004861002076490860802075494861F3
:105680000861800008614010086140004861C42042
:105690006F49086080206F49486108618000086197
:1056A000401008614000486100206949086080207E
:1056B0006849486108618000086140100861400045
:1056C0004861CD20624908608020624948610861D4
:1056D00080000861401008614000486100205C497A
:1056E000086080205B4948610861800008614010C3
:1056F000086140004861D320554908608020554921
:1057000048610861800008614010086140004861FC
:1057100000204F49086080204E49486108618000A0
:1057200008614010086140004861DD204849086078
:105730008020484948610861800008614010086184
:10574000400048610020424908608020414948618A
:105750000861800008614010086140004861F32042
:105760003B49086080203B4948610861800008612E
:1057700040100861400048610020354908608020E1
:1057800034494861086180000861E520FBF7EAF9C7
:105790004FF480702F4908614000486100202C4977
:1057A000086080202B494861086180000861401032
:1057B0000861400048610020254908608020254993
:1057C000486108618000086140100861400048613C
:1057D00000201F49086080201E4948610861800040
:1057E00008614010086140004861002018490860C5
:1057F00080201849486108618000086140100861F4
:105800004000486102201249086080201149486127
:105810000861800008614010086140004861002074
:105820000B49086080200B494861086180000861CD
:105830004010086140004861292005490860802027
:10584000044948610861800008614010086103E074
:105850000C0C014000100140400048610020FE494E
:1058600008608020FD49486108618000086140109F
:105870000861400048613C20F74908608020F749F2
:10588000486108618000086140100861400048617B
:105890000020F14908608020F049486108618000DB
:1058A000086140100861400048614B20EA490860E7
:1058B0008020EA4948610861800008614010086161
:1058C000400048610020E44908608020E3494861C5
:1058D00008618000086140100861400048615D2057
:1058E000DD4908608020DD49486108618000086169
:1058F00040100861400048610020D74908608020BE
:10590000D649486108618000086140100861400084
:1059100048617420D04908608020D04948610861FE
:105920008000086140100861400048610020CA49B9
:1059300008608020C9494861086180000861401002
:105940000861400048618420C34908608020C34941
:1059500048610861800008614010086140004861AA
:105960000020BD4908608020BC4948610861800072
:10597000086140100861400048619320B649086002
:105980008020B649486108618000086140100861C4
:10599000400048610020B04908608020AF4948615C
:1059A0000861800008614010086140004861A22041
:1059B000A94908608020A949486108618000086100
:1059C00040100861400048610020A3490860802021
:1059D000A2494861086180000861401008614000E8
:1059E0004861B3209C49086080209C494861086157
:1059F000800008614010086140004861002096491D
:105A00000860802095494861086180000861401065
:105A1000086140004861BE208F49086080208F499E
:105A200048610861800008614010086140004861D9
:105A30000020894908608020884948610861800009
:105A400008614010086140004861C4208249086034
:105A50008020824948610861800008614010086127
:105A60004000486100207C49086080207B494861F3
:105A70000861800008614010086140004861CD2045
:105A80007549086080207549486108618000086197
:105A9000401008614000486100206F490860802084
:105AA0006E4948610861800008614010086140004B
:105AB0004861D320684908608020684948610861CE
:105AC0008000086140100861400048610020624980
:105AD00008608020614948610861800008614010C9
